:020000040800F2
:10000000000001207D2D0008C52D0008C52D000829
:10001000C52D0008C52D0008C52D000800000000F2
:10002000000000000000000000000000C52D0008D6
:10003000C52D000800000000C52D0008753000081F
:10004000C52D0008C52D0008C52D0008C52D0008C8
:10005000C52D0008C52D0008C52D0008C52D0008B8
:10006000C52D0008C52D0008C52D0008C52D0008A8
:10007000C52D0008C52D0008C52D0008C52D000898
:10008000C52D0008C52D0008C52D0008C52D000888
:10009000C52D0008C52D0008C52D000891300008A9
:1000A000C52D0008C52D0008C52D0008C52D000868
:1000B000C52D0008C52D0008C52D0008C52D000858
:1000C000C52D0008C52D0008C52D0008C52D000848
:1000D000C52D0008C52D0008C52D0008C52D000838
:1000E000C52D0008C52D0008C52D00080000000022
:1000F0000000000000000000000000000000000000
:100100000000000000000000C52D0008C52D0008FB
:10011000C52D0008C52D0008C52D0008C52D0008F7
:10012000C52D0008C52D0008C52D0008C52D0008E7
:10013000C52D0008C52D0008C52D0008C52D0008D7
:10014000C52D0008C52D0008C52D0008C52D0008C7
:10015000000000000000000000000000000000009F
:10016000000000000000000000000000000000008F
:10017000000000000000000000000000000000007F
:10018000000000000000000000000000000000006F
:10019000000000000000000000000000000000005F
:1001A000000000000000000000000000000000004F
:1001B000000000000000000000000000000000003F
:1001C000000000000000000000000000000000002F
:1001D000000000000000000000000000000000001F
:0401E0005FF8E0F1F3
:1001E80010B5054C237833B9044B13B10448AFF369
:1001F80000800123237010BDC80800200000000003
:1002080084790008084B10B51BB108490848AFF3BA
:1002180000800848036803B910BD074B002BFBD0CA
:10022800BDE81040184700BF00000000CC080020BF
:1002380084790008C80800200000000081F000410F
:1002480002E000BF83F0004330B54FEA41044FEAB3
:10025800430594EA050F08BF90EA020F1FBF54EA4E
:10026800000C55EA020C7FEA645C7FEA655C00F0EA
:10027800E2804FEA5454D4EB5555B8BF6D420CDDBB
:100288002C4480EA020281EA030382EA000083EA3E
:10029800010180EA020281EA0303362D88BF30BDDE
:1002A80011F0004F4FEA01314FF4801C4CEA113134
:1002B80002D0404261EB410113F0004F4FEA033393
:1002C8004CEA133302D0524263EB430394EA050F1E
:1002D80000F0A780A4F10104D5F1200E0DDB02FA8D
:1002E8000EFC22FA05F2801841F1000103FA0EF221
:1002F800801843FA05F359410EE0A5F120050EF1E7
:10030800200E012A03FA0EFC28BF4CF0020C43FA17
:1003180005F3C01851EBE37101F0004507D54FF024
:10032800000EDCF1000C7EEB00006EEB0101B1F574
:10033800801F1BD3B1F5001F0CD349085FEA3000BA
:100348004FEA3C0C04F101044FEA445212F5800FC5
:1003580080F09A80BCF1004F08BF5FEA500C50F162
:10036800000041EB045141EA050130BD5FEA4C0C45
:10037800404141EB010111F4801FA4F10104E9D1CE
:1003880091F0000F04BF01460020B1FA81F308BFC5
:100398002033A3F10B03B3F120020CDA0C3208DD91
:1003A80002F1140CC2F10C0201FA0CF021FA02F16C
:1003B8000CE002F11402D8BFC2F1200C01FA02F1DC
:1003C80020FA0CFCDCBF41EA0C019040E41AA2BF01
:1003D80001EB0451294330BD6FEA04041F3C1CDAC9
:1003E8000C340EDC04F11404C4F1200220FA04F0E9
:1003F80001FA02F340EA030021FA04F345EA030193
:1004080030BDC4F10C04C4F1200220FA02F001FA54
:1004180004F340EA0300294630BD21FA04F02946D6
:1004280030BD94F0000F83F4801306BF81F480116F
:100438000134013D4EE77FEA645C18BF7FEA655CE2
:1004480029D094EA050F08BF90EA020F05D054EAB4
:10045800000C04BF1946104630BD91EA030F1EBFB9
:100468000021002030BD5FEA545C05D140004941BD
:1004780028BF41F0004130BD14F580043CBF01F5B0
:10048800801130BD01F0004545F0FE4141F4700196
:100498004FF0000030BD7FEA645C1ABF1946104671
:1004A8007FEA655C1CBF0B46024650EA013406BF72
:1004B80052EA033591EA030F41F4002130BD00BF31
:1004C80090F0000F04BF0021704730B54FF48064EE
:1004D80004F132044FF000054FF0000150E700BF6F
:1004E80090F0000F04BF0021704730B54FF48064CE
:1004F80004F1320410F0004548BF40424FF00001BB
:100508003EE700BF42004FEAE2014FEA31014FEAFD
:1005180002701FBF12F07F4393F07F4F81F060514C
:10052800704792F0000F14BF93F07F4F704730B5BB
:100538004FF4607401F0004521F0004120E700BF4E
:1005480050EA010208BF704730B54FF000050AE0D5
:1005580050EA010208BF704730B511F0004502D5D6
:10056800404261EB41014FF4806404F132045FEAD8
:10057800915C3FF4DCAE4FF003025FEADC0C18BF7D
:1005880003325FEADC0C18BF033202EBDC02C2F173
:10059800200300FA03FC20FA02F001FA03FE40EA05
:1005A8000E0021FA02F11444C1E600BF70B54FF005
:1005B800FF0C4CF4E06C1CEA11541DBF1CEA1355E7
:1005C80094EA0C0F95EA0C0F00F0DEF82C4481EA4F
:1005D800030621EA4C5123EA4C5350EA013518BF6F
:1005E80052EA033541F4801143F4801338D0A0FB5C
:1005F80002CE4FF00005E1FB02E506F00042E0FB09
:1006080003E54FF00006E1FB03569CF0000F18BF0E
:100618004EF0010EA4F1FF04B6F5007F64F54074B6
:1006280004D25FEA4E0E6D4146EB060642EAC62149
:1006380041EA55514FEAC52040EA5E504FEACE2EB6
:10064800B4F1FD0C88BFBCF5E06F1ED8BEF1004FB9
:1006580008BF5FEA500E50F1000041EB045170BD35
:1006680006F0004646EA010140EA020081EA030179
:10067800B4EB5C04C2BFD4EB0C0541EA045170BD75
:1006880041F480114FF0000E013C00F3AB8014F1EF
:10069800360FDEBF002001F0004170BDC4F1000438
:1006A800203C35DA0C341BDC04F11404C4F12005B9
:1006B80000FA05F320FA04F001FA05F240EA020014
:1006C80001F0004221F0004110EBD37021FA04F64A
:1006D80042EB06015EEA430E08BF20EAD37070BD04
:1006E800C4F10C04C4F1200500FA04F320FA05F063
:1006F80001FA04F240EA020001F0004110EBD37065
:1007080041F100015EEA430E08BF20EAD37070BDD4
:10071800C4F1200500FA05F24EEA020E20FA04F3AD
:1007280001FA05F243EA020321FA04F001F000415C
:1007380021FA04F220EA020000EBD3705EEA430ECD
:1007480008BF20EAD37070BD94F0000F0FD101F0FC
:100758000046400041EB010111F4801F08BF013C35
:10076800F7D041EA060195F0000F18BF704703F073
:100778000046520043EB030313F4801F08BF013DFA
:10078800F7D043EA0603704794EA0C0F0CEA1355B6
:1007980018BF95EA0C0F0CD050EA410618BF52EA70
:1007A8004306D1D181EA030101F000414FF0000076
:1007B80070BD50EA410606BF1046194652EA430684
:1007C80019D094EA0C0F02D150EA013613D195EAF8
:1007D8000C0F05D152EA03361CBF104619460AD140
:1007E80081EA030101F0004141F0FE4141F470014A
:1007F8004FF0000070BD41F0FE4141F4780170BD3A
:1008080070B54FF0FF0C4CF4E06C1CEA11541DBF9E
:100818001CEA135594EA0C0F95EA0C0F00F0A7F8A0
:10082800A4EB050481EA030E52EA03354FEA0131CD
:1008380000F088804FEA03334FF0805545EA1313E0
:1008480043EA12634FEA022245EA111545EA1065A8
:100858004FEA00260EF000419D4208BF964244F13F
:10086800FD0404F5407402D25B084FEA3202B61A5E
:1008780065EB03055B084FEA32024FF480104FF432
:10088800002CB6EB020E75EB030E22BFB61A7546A6
:1008980040EA0C005B084FEA3202B6EB020E75EB39
:1008A800030E22BFB61A754640EA5C005B084FEAA1
:1008B8003202B6EB020E75EB030E22BFB61A75466E
:1008C80040EA9C005B084FEA3202B6EB020E75EB79
:1008D800030E22BFB61A754640EADC0055EA060E3A
:1008E80018D04FEA051545EA16754FEA06164FEA7D
:1008F800C30343EA52734FEAC2025FEA1C1CC0D129
:1009080011F4801F0BD141EA00014FF000004FF0B5
:10091800004CB6E711F4801F04BF01430020B4F176
:10092800FD0C88BFBCF5E06F3FF6AFAEB5EB030C2E
:1009380004BFB6EB020C5FEA500C50F1000041EB2B
:10094800045170BD0EF0004E4EEA113114EB5C04F8
:10095800C2BFD4EB0C0541EA045170BD41F48011CB
:100968004FF0000E013C90E645EA060E8DE60CEAD3
:10097800135594EA0C0F08BF95EA0C0F3FF43BAFF0
:1009880094EA0C0F0AD150EA01347FF434AF95EAA7
:100998000C0F7FF425AF104619462CE795EA0C0F8B
:1009A80006D152EA03353FF4FDAE1046194622E758
:1009B80050EA410618BF52EA43067FF4C5AE50EA32
:1009C80041047FF40DAF52EA43057FF4EBAE12E722
:1009D8004A0011D212F5001211D20DD56FF47873B6
:1009E800B3EB62520ED44FEAC12343F0004343EA0B
:1009F800505323FA02F070474FF00000704750EA56
:100A0800013002D14FF0FF3070474FF000007047BF
:100A1800844641EA000313F0030349D1403A23D343
:100A28000B6803604B6843608B688360CB68C36066
:100A38000B6903614B6943618B698361CB69C3614E
:100A48000B6A03624B6A43628B6A8362CB6AC36236
:100A58000B6B03634B6B43638B6B8363CB6BC3631E
:100A680040304031403ADBD230320BD30B68036060
:100A78004B6843608B688360CB68C360103010316B
:100A8800103AF3D20C3205D351F8043B40F8043B3A
:100A9800043AF9D2043208D0D2071CBF11F8013B3E
:100AA80000F8013B01D30B8803806046704700BF04
:100AB800082A13D38B07B1D010F00303AED0C3F1CB
:100AC8000403D21ADB071CBF11F8013B00F8013BF5
:100AD800A4D331F8023B20F8023B9FE7043AD9D36C
:100AE800013A11F8013B00F8013BF9D20B78037089
:100AF8004B7843708B788370604670474FF0FF3CAB
:100B080006E000BF4FF0010C02E000BF4FF0010CFF
:100B18004DF804CD4FEA410C7FEA6C5C4FEA430C78
:100B280018BF7FEA6C5C1BD001B050EA410C0CBFC7
:100B380052EA430C91EA030F02BF90EA020F002029
:100B4800704710F1000F91EA030F58BF994208BF90
:100B580090422CBFD8176FEAE37040F0010070474D
:100B68004FEA410C7FEA6C5C02D150EA013C07D1A4
:100B78004FEA430C7FEA6C5CD6D152EA033CD3D0EF
:100B88005DF8040B704700BF8446104662468C46E9
:100B98001946634600E000BF01B5FFF7B7FF00281C
:100BA80048BF10F1000F01BD4DF808EDFFF7F4FF45
:100BB8000CBF012000205DF808FB00BF4DF808EDD0
:100BC800FFF7EAFF34BF012000205DF808FB00BFF3
:100BD8004DF808EDFFF7E0FF94BF012000205DF815
:100BE80008FB00BF4DF808EDFFF7CEFF94BF0120CA
:100BF80000205DF808FB00BF4DF808EDFFF7C4FFC3
:100C080034BF012000205DF808FB00BF4FEA410C0B
:100C18007FEA6C5C02D150EA013C0AD14FEA430CEE
:100C28007FEA6C5C02D152EA033C02D14FF000002B
:100C380070474FF0010070474FEA410212F5001269
:100C480015D211D56FF47873B3EB625212D94FEA0B
:100C5800C12343F0004343EA505311F0004F23FAF5
:100C680002F018BF404270474FF00000704750EA4A
:100C7800013005D111F0004008BF6FF00040704707
:100C88004FF00000704700BF53B94AB9002908BFA8
:100C980000281CBF4FF0FF314FF0FF3000F082B941
:100CA800ADF1080C6DE904CE00F006F8DDF804E0BB
:100CB800DDE9022304B070472DE9F04F8C460C465D
:100CC8000546099E002B4FD18A4217466BD9B2FAC6
:100CD80082FEBEF1000F0BD0CEF1200520FA05F5FB
:100CE80001FA0EF345EA030C02FA0EF700FA0EF5C4
:100CF800390CBCFBF1F0BAB201FB10C300FB02F8DF
:100D08004FEA154C4CEA0344A04509D9E41900F10F
:100D1800FF3380F02881A04540F2258102383C4409
:100D2800C8EB0404B4FBF1F301FB134C03FB02F220
:100D3800ACB244EA0C418A4209D9C91903F1FF341B
:100D480080F00F818A4240F20C81023B39448A1AB2
:100D580043EA00400021002E63D022FA0EF200235D
:100D680086E80C00BDE8F08F8B4207D9002E56D0DC
:100D7800002186E811000846BDE8F08FB3FA83F138
:100D8800002940F09380A34202D3824200F2FE8001
:100D9800851A64EB03039C460120002E41D086E8A7
:100DA8002010BDE8F08F12B90127B7FBF2F7B7FAA8
:100DB80087FEBEF1000F36D1E41B4FEA17481FFA31
:100DC80087F90121B4FBF8F308FB134409FB03F28C
:100DD8004FEA154C4CEA0444A24207D9E41903F13E
:100DE800FF3002D2A24200F2D3800346A41AB4FB19
:100DF800F8F008FB104809FB00F9ACB244EA0842D5
:100E0800914507D9D21900F1FF3402D2914500F279
:100E1800BA802046C9EB020240EA03409BE731460C
:100E28003046BDE8F08F07FA0EF7CEF1200C24FA11
:100E38000CF34FEA1748B3FBF8FA1FFA87F908FBD7
:100E48001A3520FA0CFC04FA0EF40AFB09FB4CEAEA
:100E5800040C4FEA1C4242EA05439B4500FA0EF592
:100E68000AD9DB190AF1FF3280F08B809B4540F2EA
:100E78008880AAF1020A3B44CBEB0303B3FBF8F0EA
:100E880008FB103300FB09F41FFA8CFC4CEA0343FF
:100E98009C4207D9DB1900F1FF326ED29C426CD913
:100EA80002383B441C1B40EA0A418BE7C1F1200E83
:100EB8008B4022FA0EFC4CEA030C24FA0EF74FEA98
:100EC8001C49B7FBF9FA1FFA8CF309FB1A7720FAC9
:100ED8000EF88C400AFB03F548EA04044FEA14486C
:100EE80048EA0747BD4202FA01F200FA01FB09D9B4
:100EF80017EB0C070AF1FF3041D2BD423FD9AAF1E6
:100F0800020A67447F1BB7FBF9F509FB157705FB58
:100F180003F3A4B244EA0747BB4208D917EB0C070E
:100F280005F1FF3027D2BB4225D9023D674445EA87
:100F38000A40A0FB0289FF1A4F4545464C4614D388
:100F480029D066B3BBEB050367EB040707FA0EFE6F
:100F5800CB40CF404EEA030386E888000021BDE875
:100F6800F08F2346F3E61846DAE6B8EB020569EB9C
:100F78000C040138E5E70546D9E7104692E78246B2
:100F8800C0E7924678E702383A4443E7084604E760
:100F9800023B3C442AE7C345E7D33C46D1E7314608
:100FA800BDE8F08F704700BF70B50F4E0F4D761B30
:100FB800B61018BF002405D0013455F8043B9847F3
:100FC800A642F9D10A4E0B4D06F0D8FC761BB61096
:100FD80018BF002406D0013455F8043B9847A642B0
:100FE800F9D170BD70BD00BFA4790008A4790008CC
:100FF800AC790008A479000870B4840746D0541E60
:10100800002A41D0CDB2034602E0621EE4B3144682
:1010180003F8015B9A07F8D1032C2ED9CDB245EA23
:1010280005250F2C45EA054519D9264603F1100276
:10103800103E0F2E42F8105C42F80C5C42F8085C37
:1010480042F8045C02F11002F2D8A4F1100222F076
:101058000F0204F00F041032032C13440DD91E465E
:101068002246043A032A46F8045BFAD8221F22F0E3
:1010780003020432134404F003042CB1C9B21C4423
:1010880003F8011BA342FBD170BC7047144603460A
:10109800C2E700BF024B13B1024800F005B8704721
:1010A80000000000BD100008002301461A4618463B
:1010B80000F014B838B5074D074C2C1BA41005D008
:1010C800013C55F8043D9847002CF9D1BDE838405B
:1010D80006F05ABCB0790008AC7900082DE9F04751
:1010E800254C064625688846D5F8484192469946D3
:1010F800C4B360681F2817DC411C76B104EB800379
:10110800C3F888A0D4F88851012282401543022EE2
:10111800C4F88851C3F808911ED0831C6160002070
:1011280044F82380BDE8F087144B03B34FF4C8702C
:10113800AFF300800446D0B1D5F84831002784E8E1
:1011480088003846C5F848410121C4F88871C4F8B8
:101158008C71002EE1D0D1E7D4F88C311A43C4F851
:101168008C21DAE705F5A674C5F84841C1E74FF0C8
:10117800FF30BDE8F08700BF4C7700080000000092
:10118800EFF30883184670471C462346184600BFED
:1011980080B500AF1A4A1A4B1B6843F0010313606D
:1011A8001749174B5A68174B13404B60144A144B96
:1011B8001B6823F0847323F480331360104A104BA8
:1011C8001B6823F4802313600D4A0D4B5B6823F4DE
:1011D800FE0353600A4A0A4B1B6823F0A0531360AE
:1011E800074B4FF47F029A60054B0022DA6200F049
:1011F8000DF8054B4FF000629A6000BF80BD00BF3C
:10120800001002400000FFF000ED00E080B500AFE4
:1012180000F002F800BF80BD80B483B000AF0023A7
:101228007B6000233B60474A464B1B6843F480338E
:101238001360444B1B6803F400333B607B68013345
:101248007B603B68002B03D17B68B3F5A06FF0D1BE
:101258003C4B1B6803F40033002B02D001233B6096
:1012680001E000233B603B68012B66D1364A364BD0
:101278001B6843F010031360334A334B1B6823F099
:1012880003031360304A304B1B6843F002031360BA
:101298002C4A2C4B5B6853602A4A2A4B5B68536084
:1012A800284A284B5B6843F4806353602549254BE3
:1012B800DA6A264B1340CB62224A224BDB6A43F49C
:1012C800833343F04403D3621E4A1E4B1B6843F02A
:1012D8008063136000BF1B4B1B6803F00063002B87
:1012E800F9D0184A174B5B6823F47C135360154AEE
:1012F800144B5B6843F4E8135360124A114B1B68A4
:1013080043F08073136000BF0E4B1B6803F000733B
:10131800002BF9D00B4A0B4B5B6823F00303536097
:10132800084A084B5B6843F00203536000BF054B53
:101338005B6803F00C03082BF9D100BF0C37BD46DE
:1013480080BC7047001002400020024000F0FEFF01
:1013580080B586B000AF0346FB800023FB820023E4
:101368003B614C4B00225A744A4B00229A76494BF7
:1013780000221A83474B00229A62464B0022DA6207
:10138800444B00221A63434B00225A6300F086F84C
:101398000246414B9A4202D04FF0FF3376E000F00C
:1013A80089FD002000F03EFC04220021242000F0EA
:1013B80063FB1E2000F0B8FB0346FB82FB8A1B0A76
:1013C8009BB2DAB2334B5A72042000F0ADFB38619D
:1013D8003B69DBB2002B0BD0022212212D2000F03A
:1013E8004BFB2C4B1B8B43F480539AB2294B1A832B
:1013F800062000F099FB0246264B1A60072000F0F1
:1014080093FB0246234B5A60FB8ADBB203F01F03AF
:10141800DAB2204B1A741F4B1B7C002B02D11D4BD8
:1014280010221A741B4B1B7C184600F067FDFB88C2
:1014380003F00103002B09D000F0C4FB154B1B8BF4
:1014480043F400639AB2134B1A830FE00521362048
:1014580000F0E0FA0346FB81FB8923F40073FB816B
:10146800FB891A460521362000F01AFB012000F0FE
:10147800D9FB00220A212C2000F0FEFA00210420CA
:1014880000F0A0FA0246034B5A61002318461837A9
:10149800BD4680BDE40800203001CADE80B500AF3B
:1014A8000021002000F08EFA0346184680BD00BFD8
:1014B80080B586B000AF78607B681B787B757B68E9
:1014C8005B791A46974B33F81230FB827B685B785E
:1014D800013B3B757B7D042B02D07B7D072B01D123
:1014E800012300E00023FB747B68DB79002B09D122
:1014F8008D4B5B6943F480038B4A5361FB8ADB089D
:10150800FB8205E0884B5B6923F48003864A5361BC
:101518007B681A7A844B1A72834B5B6923F44033D5
:10152800814A5361804B5A697B681B7A1B0403F418
:10153800403313437C4A53617B4B5B691A46002155
:10154800042000F0C9FAFB8A1A4642F604012E204C
:1015580000F0A6FA3B7D184600F014FB7B7D734A29
:10156800D35C1A46724B53F822301A4607212B20B7
:1015780000F0B2FA7B7D6D4AD35C1A466D4B9B5CDA
:101588001A460B212B2000F077FAFB7C6A4AD35CC1
:101598001A460B21282000F06FFA7B7D634AD35C42
:1015A8001A46664B53F822301A460C21282000F0C0
:1015B80093FA7B68DB7918467B689B791946604A01
:1015C80043000B4432F813301A460221272000F05A
:1015D80067FA3B7D5B4A32F813301A46042127200C
:1015E80000F05EFA7B68DB79002B05D164220621C6
:1015F800272000F055FA18E07B689B78042B0AD165
:1016080010220621272000F04BFA1022262127203D
:1016180000F032FA09E020220621272000F040FAE3
:1016280028222621272000F027FA3B7D7A68D278E5
:101638001146454A9B000B4452F823301A460821AC
:10164800272000F049FA7B685B89002B03D17B686F
:1016580041F241025A817B685B891A462021272082
:1016680000F01EFA394B1B681A460C21232000F0A3
:1016780033FA3B7D354A5B0013449B881A460421A4
:10168800232000F00DFA7B689B79002B09D07B683A
:10169800DB791A462E4B9B5C1A460021212000F06C
:1016A800EBF97B7D03F00F027B7D1B01DBB21A4354
:1016B8007B685B789B0403F440231A437B689B791F
:1016C8005B0403F400331A437B681B799B0503F022
:1016D800F86313437A685279D2061343FB60FA68B9
:1016E80000211F2000F0F8F97B689A787B685B7806
:1016F8001343DBB21A047B68DB795B0313431A4696
:10170800094BDA60084BDB681A460021082000F014
:10171800E3F9422200210D2000F0AEF900BF18378E
:10172800BD4680BDD0770008E40800205077000847
:1017380070770008887700089077000858770008C5
:10174800A0770008AC770008B07700089477000805
:101758009C77000880B582B000AF0346FB80FB8809
:101768001A4641F604012E2000F09AF900BF083706
:10177800BD4680BD80B582B000AF0346FB80FB88C4
:101788001A460021182000F08BF900BF0837BD4623
:1017980080BD00BF80B582B000AF03463960FB80D2
:1017A8001346BB80BA88FB881344B3F5806F09DC05
:1017B800FB88023B1A46B9883B68092000F04CF8C0
:1017C800002301E04FF0FF3318460837BD4680BDBF
:1017D80080B584B000AF03463A60FB800B46BB80FF
:1017E800094BDA68FB881343BA88920513433A68B1
:1017F800D2031343FB60FA680021082000F06CF95B
:1018080000BF1037BD4680BDE408002080B582B017
:1018180000AF78600B467B8013463B807A88398816
:101828007B68112000F074F800BF0837BD4680BD02
:1018380080B500AF0021172000F0C4F80346184611
:1018480080BD00BF80B500AF0021152000F0BAF8B8
:101858000346184680BD00BF80B586B000AFBA60A9
:101868007B600346FB810B46BB8100237B61BB8900
:10187800002B0DD17B695A1C7A61FA89D2B262F0C9
:101888007F02D2B207F118010B4403F8082C33E0A9
:101898007B695A1C7A61FA89D2B262F03F02D2B2ED
:1018A80007F118010B4403F8082CBB897F2B0AD8D1
:1018B8007B695A1C7A61BA89D2B207F118010B44C4
:1018C80003F8082C18E07B695A1C7A61BA89D2B2ED
:1018D80062F07F02D2B207F118010B4403F8082C1A
:1018E8007B695A1C7A61BA89D20992B2D2B207F1DD
:1018F80018010B4403F8082C7B6998B207F1100112
:101908007B68BA6800F012FB00BF1837BD4680BD7F
:1019180080B586B000AFBA607B600346FB810B469A
:10192800BB8100237B61BB89002B0AD17B695A1CD0
:101938007A61FA89D2B207F118010B4403F8082C2E
:1019480033E07B695A1C7A61FA89D2B242F04002CC
:10195800D2B207F118010B4403F8082CBB897F2B7E
:101968000AD87B695A1C7A61BA89D2B207F1180180
:101978000B4403F8082C18E07B695A1C7A61BA8971
:10198800D2B262F07F02D2B207F118010B4403F819
:10199800082C7B695A1C7A61BA89D20992B2D2B2F0
:1019A80007F118010B4403F8082C7B6998B207F17A
:1019B80010017B68BA6800F0F3FA00BF1837BD461B
:1019C80080BD00BF80B586B000AF78603960002365
:1019D8007B617B6898B23B6899B207F10C030422DB
:1019E800FFF796FF03233B610BE07B691B0207F1BE
:1019F8000C013A690A44127813447B613B69013B44
:101A08003B613B69002BF0DA7B6918461837BD4605
:101A180080BD00BF80B584B000AF78603960002316
:101A2800FB817B6898B23B6899B207F10C030222EC
:101A3800FFF76EFF7B7B9BB21B029AB23B7B9BB28C
:101A48001344FB81FB8918461037BD4680BD00BF93
:101A580080B584B000AF786039607B6898B23B6825
:101A680099B207F10F030122FFF752FFFB7B1846DB
:101A78001037BD4680BD00BF80B584B000AFF860A8
:101A8800B9601346FB71FB6898B2BB6899B2FB1D3D
:101A98000122FFF7E1FE00BF1037BD4680BD00BF41
:101AA80080B586B000AFF860B9601346FB80FB884C
:101AB800DBB23B75FB881B0A9BB2DBB27B75FB680C
:101AC80098B2BB6899B207F114030222FFF7C4FE6B
:101AD80000BF1837BD4680BD80B586B000AFF8603E
:101AE800B9607A6000237B610DE07B68D9B207F1A9
:101AF80010027B6913440A461A707B681B0A7B60D4
:101B08007B6901337B617B69032BEEDDFB6898B24F
:101B1800BB6899B207F110030422FFF79DFE00BFCE
:101B28001837BD4680BD00BF80B584B000AF78606F
:101B38007B689BB21A4604212D20FFF7B1FF0322D0
:101B480006212D20FFF798FF002206212D20FFF700
:101B580093FF0A212D20FFF735FFF860FB68184630
:101B68001037BD4680BD00BF80B500AF00220221FE
:101B78002C20FFF781FF022202212C20FFF77CFF97
:101B880000BF80BD80B582B000AF78606D2240F69E
:101B980006012E20FFF770FF7B68002B07D040F26C
:101BA800076241F606012E20FFF77AFF06E041F2B0
:101BB800076241F606012E20FFF772FF00BF0837C3
:101BC800BD4680BD80B500AF0E2000F02BF84FF465
:101BD800004206212D20FFF763FF012001F0C4F920
:101BE800012000F01FF800BF80BD00BF80B584B0A1
:101BF80000AF786000211A20FFF7E4FEF860FB6868
:101C08001B0D1B05FB607B68C3F31303FA681343C2
:101C1800FB60FA6800211A20FFF75EFF00BF10374B
:101C2800BD4680BD80B584B000AF786007F10C0375
:101C3800022200213620FFF76BFE7B680E2B76D838
:101C480001A252F823F000BF9D1C00088D1C00085B
:101C5800B31C0008371D0008371D0008371D000891
:101C6800371D0008C91C0008E91C0008371D0008BA
:101C7800371D0008FF1C00080B1D0008171D000871
:101C88002D1D000800233B737B7B23F00103DBB28F
:101C98007B734DE03B7B5BB223F003035BB243F005
:101CA80001035BB2DBB23B7342E03B7B5BB223F0E8
:101CB80003035BB243F002035BB2DBB23B7337E072
:101CC8003B7B5BB223F04C035BB243F048035BB24F
:101CD800DBB23B737B7B63F07F03DBB27B7327E074
:101CE8003B7B23F04C03DBB23B737B7B03F07F032E
:101CF800DBB27B731CE07B7B43F00203DBB27B73BC
:101D080016E07B7B23F00203DBB27B7310E03B7BA6
:101D18005BB223F030035BB243F020035BB2DBB26B
:101D28003B7305E001233B7303237B7300E000BF93
:101D380007F10C03012200213620FFF78DFD07F182
:101D48000C030133012201213620FFF785FD00BF76
:101D58001037BD4680BD00BF80B500AF0020FFF73B
:101D680061FF002204213620FFF79AFE00BF80BDE4
:101D780080B584B000AF0346FB710023FB600023ED
:101D8800FB7200233B81FB7903F00203002B0AD08E
:101D98008023FB72FB7A1A4600210D20FFF76CFEA8
:101DA8001E4B01229A76FB7903F00103002B26D003
:101DB800FB7A43F00603FB72FB7A1A4600210D20DA
:101DC800FFF75AFE03210F20FFF724FE03463B814D
:101DD8003B8903F48163002B02D10023FB6018E0E8
:101DE8004023FB72FB7A1A4600210D20FFF744FEC0
:101DF8000A4B00229A764FF0FF33FB6009E0FB7A2A
:101E080043F00203FB72FB7A1A4600210D20FFF70C
:101E180033FEFB6818461037BD4680BDE408002035
:101E280080B584B000AF0346FB8003210420FFF790
:101E38000FFE0346FB73FB88002B16D0FB881A465F
:101E480000210C20FFF72CFEFB7B43F01003FB73F3
:101E5800104B5B6943F080530E4A5361FB7B1A4673
:101E680003210420FFF708FE0FE0FB7B23F010039B
:101E7800FB73084B5B6923F08053064A5361FB7B75
:101E88001A4603210420FFF7F7FD00BF1037BD46AF
:101E980080BD00BFE408002080B500AFE022032128
:101EA8003620FFF7E9FDF02203213620FFF7E4FD95
:101EB80000BF80BD80B500AFFFF74EFF00220021B4
:101EC8002C20FFF7EDFD002206212C20FFF7D4FD82
:101ED800FFF74AFE002203213620FFF7CDFD01203F
:101EE80001F042F8F02203213620FFF7C5FD024B2E
:101EF80000229A7600BF80BDE408002080B584B037
:101F080000AF0346FB7197F9073003F01F035BB27C
:101F180043F060035BB2FB73FB7B1A460E212B2058
:101F2800FFF7AAFD00BF1037BD4680BD2DE97043FD
:101F3800814690461E460C4600F0F4FF164B1022D0
:101F48005A61B9F1000F0ED0144D2146AE4604EB8C
:101F5800090211F8013BAB812C89E407FCD58A42C0
:101F6800BEF80C30F5D1B8F1000F0DD00B4933464F
:101F78000D4606EB080413F8012B8A810A89D2075B
:101F8800FCD5A342AA89F6D1034B10221A6100F0AE
:101F9800DDFF0020BDE870830008014000300140EB
:101FA8002DE97043814690461E460C4600F0BAFF64
:101FB800174B10225A61B9F1000F0FD0154D214669
:101FC800AE4604EB090211F8013BAB812C89E4070A
:101FD800FCD5BEF80C3091423370F4D1B8F1000F43
:101FE8000ED00C4933460C464FF00005B0448D81A5
:101FF8000A89D207FCD5A28903F8012B9845F6D1A6
:10200800034B10221A6100F0A1FF0020BDE8708385
:10201800000801400030014080B489B000AF78600A
:1020280039600023FB6100233B610023BB6100236F
:10203800FB6000237B610023BB603B68DB7803F017
:102048000F03FB613B68DB7803F01003002B05D01E
:102058003B689B781A46FB691343FB613B681B8806
:10206800DBB2002B44D07B681B687B610023BB611B
:1020780038E00122BB6902FA03F3FB603B681B8866
:102088001A46FB6813403B613A69FB689A4226D1BD
:10209800BB699B00FB600F22FB6802FA03F3BB607D
:1020A800BB68DB437A6913407B61FA69FB6802FA13
:1020B80003F37A6913437B613B68DB78282B05D1EE
:1020C8000122BB699A407B685A6108E03B68DB786B
:1020D800482B04D10122BB699A407B681A61BB690D
:1020E8000133BB61BB69072BC3D97B687A691A6066
:1020F8003B681B88FF2B46D97B685B687B610023A4
:10210800BB613AE0BB690833012202FA03F3FB60C2
:102118003B681B881A46FB6813403B613A69FB68B9
:102128009A4227D1BB699B00FB600F22FB6802FA29
:1021380003F3BB60BB68DB437A6913407B61FA69D0
:10214800FB6802FA03F37A6913437B613B68DB7827
:10215800282B05D1BB69083301229A407B685A6154
:102168003B68DB78482B05D1BB69083301229A40CC
:102178007B681A61BB690133BB61BB69072BC1D995
:102188007B687A695A6000BF2437BD4680BC7047B7
:1021980080B485B000AF78600B467B800023FB736A
:1021A8007B689A687B881340002B02D00123FB735D
:1021B80001E00023FB73FB7B18461437BD4680BC47
:1021C800704700BF80B483B000AF78600B467B8057
:1021D8007A887B681A6100BF0C37BD4680BC70479F
:1021E80080B483B000AF78600B467B807A887B68C8
:1021F8005A6100BF0C37BD4680BC704780B487B0B9
:1022080000AF78600B46FB7000233B610023FB6046
:1022180000237B610023BB607B68002B03DA2E4B15
:10222800DB697B6102E02C4B5B687B617B681B0C84
:1022380003F00F03BB607B689BB23B617B6803F4D0
:102248004013B3F5401F0AD17B6923F070637B61AB
:10225800214A214B5B6823F07063536021E07B685F
:1022680003F48013002B0ED00322BB6802FA03F399
:10227800FB60FB68DB437A6913407B617B6943F051
:1022880070637B610DE07B685B0D1B013A6902FAA4
:1022980003F3DB437A6913407B617B6943F0706326
:1022A8007B61FB78002B08D07B685B0D1B013A69CA
:1022B80002FA03F37A6913437B617B68002B03DA24
:1022C800054A7B69D36102E0034A7B69536000BF1A
:1022D8001C37BD4680BC70470000014090B484B0F4
:1022E80000AF03460A46FB711346BB710023FB602F
:1022F800BB7903F003039B000F2202FA03F3FB6090
:102308001649BB799B08DBB21846144ABB799B086F
:10231800DBB2023352F82320FB68DB431A40831CEC
:1023280041F823200D48BB799B08DBB21C460B4AB9
:10233800BB799B08DBB2023352F82320F979BB79C9
:1023480003F003039B0001FA03F31A43A31C40F8AC
:10235800232000BF1037BD4690BC704700000140E5
:1023680080B584B000AF78600223FB7307F10F03D8
:102378001A460021012001F095F90123FB7307F1AA
:102388000F031A460021012001F08CF97A68012117
:10239800282001F087F900BF1037BD4680BD00BF77
:1023A800B0B58CB002AF01F06DF900233B623A6A18
:1023B8009F49A04801F094FB9E4801F0D3F901F031
:1023C800F7F800F0C1FF0120FEF7C2FF0346B3F1A2
:1023D800FF3F03D1984801F0C5F9FEE700F0BCFFC4
:1023E8009648FFF765F844F23400FFF7B3F944F272
:1023F8003400FFF7BFF98C20FFF7F8FBD220FFF776
:102408000FFD01237B6200E18D4B1A788D4B9A708A
:102418007B6ADAB28B4B9A727B6A032B02D1894BA7
:1024280007229A72802200210F20FFF755FB002215
:1024380084490D20FFF7AEF9012200210D20FFF796
:10244800C7F90220FFF794FC00BF00210F20FFF717
:10245800B9FA02467C4B1A607B4B1A687B4B1340D7
:10246800002BF2D0764B1B780133DAB2744B1A701A
:10247800754B1B6803F48043002B00F0B8804FF4C1
:10248800804200210F20FFF727FB00211020FFF7D3
:1024980099FA034603F07F03FB61FB691E2B06D8FC
:1024A800FB699BB2002219466948FFF7AFF9684BF0
:1024B80000229A700A226749654801F0DFFA03464C
:1024C800002B40F099807B6A032B40D0FFF7B0F9CE
:1024D800B861FFF7B7F9786107F1080319465E4854
:1024E80000F0D0F83B1D19465C4800F0CBF87A693B
:1024F800BB69D31A3B617A68BB68D31AFB603A6937
:10250800FB68D31A1846FDF7EBFF4FF000024FF0B7
:102518008043FEF775F903460C46184621463EA34C
:10252800D3E90023FEF742F803460C464C4AC2E9B9
:1025380000344B4BD3E9000139A3D3E90023FEF75C
:1025480035F803460C46474AC2E9003413E0404BCD
:102558001B7D1846FDF7C4FF33A3D3E90023FEF71C
:1025680025F803460C463F4AC2E900343E4B1B6837
:1025780001333D4A13607B6A012B0DD13A4B1B682E
:102588005D1E384B18CB18462146FEF721FA024645
:10259800364B43F825201DE07B6A022B0DD1324BC8
:1025A8001B685D1E2F4B18CB18462146FEF710FA04
:1025B80002462F4B43F825200CE02B4B1B685D1E71
:1025C800284B18CB18462146FEF702FA0246294B3B
:1025D80043F82520234B18CBCDE900347A6A2649E5
:1025E800264801F07DFA2548FFF7BAFE04E0244AA0
:1025F80000210F20FFF770FAFFF74EFC4FF47A70B6
:1026080000F0BEFC7B6A01337B627B6A032B7FF799
:10261800FBAEF6E6AFF30080FA48CE3B1835B13D85
:102628000000001319DDB1417B14AE47E17A943FF5
:1026380010770008680900201C7700083004002083
:102648001C0900203C0400204009002000D0272459
:10265800200900204C0400202A0900202E0900200F
:102668004809002050090020680400207C09002047
:10267800A4090020CC090020287700085809002068
:102688000090272480B485B000AF786039603B683B
:1026980000221A600023FB6010E03B681B68FA68A0
:1026A80079680A4412781146FA68D20001FA02F2EF
:1026B8001A443B681A60FB680133FB60FB68032B14
:1026C800EBDD00BF1437BD4680BC704780B400AF57
:1026D800184A184B1B6843F0010313601549154B42
:1026E8005A68154B13404B60124A124B1B6823F073
:1026F800847323F4803313600E4A0E4B1B6823F453
:10270800802313600B4A0B4B5B6823F4FE03536072
:10271800084A084B1B6823F0A0531360054B4FF47D
:102728007F029A60034B0022DA6200BFBD4680BC7C
:10273800704700BF001002400000FFF080B483B073
:1027480000AF7860134A134B1B6823F4803313607F
:10275800104A104B1B6823F4802313607B68B3F581
:10276800803F03D0B3F5802F07D00DE0094A094B0D
:102778001B6843F48033136006E0064A054B1B6868
:1027880043F4A023136000BF00BF0C37BD4680BCD4
:10279800704700BF0010024080B582B000AF002330
:1027A8003B600023FB710023BB71312000F0A8FAC5
:1027B8000346BB713B6801333B603B68B3F5A06FD0
:1027C80002D0BB79002BF0D0312000F099FA0346F3
:1027D800002B02D00123FB7101E00023FB71FB7980
:1027E80018460837BD4680BD80B485B000AF786014
:1027F80039600023FB600A4B5B68FB60FB6823F4CD
:102808007413FB607A683B681343FA681343FB60F0
:10281800034AFB68536000BF1437BD4680BC70474D
:102828000010024080B483B000AF0346FB71044A35
:10283800FB79136000BF0C37BD4680BC704700BFF2
:102848006000424280B485B000AF786039600023F0
:10285800FB600B4BDB6AFB60FB6823F4803323F0DF
:102868000F03FB607A683B681343FA681343FB6005
:10287800034AFB68D36200BF1437BD4680BC70476B
:102888000010024080B485B000AF78600023FB6080
:10289800094BDB6AFB60FB6823F0F003FB60FA6816
:1028A8007B681343FB60044AFB68D36200BF14379C
:1028B800BD4680BC704700BF0010024080B485B0A0
:1028C80000AF78600023FB60094BDB6AFB60FB68A4
:1028D80023F47063FB60FA687B681343FB60044A67
:1028E800FB68D36200BF1437BD4680BC704700BF89
:1028F8000010024080B483B000AF0346FB71044A65
:10290800FB79136000BF0C37BD4680BC704700BF21
:102918006800424280B485B000AF78600023FB6055
:10292800094B5B68FB60FB6823F00303FB60FA68F4
:102938007B681343FB60044AFB68536000BF14378D
:10294800BD4680BC704700BF0010024080B400AF95
:10295800044B5B68DBB203F00C03DBB21846BD46E0
:1029680080BC70470010024080B485B000AF78602A
:102978000023FB60094B5B68FB60FB6823F0F003F6
:10298800FB60FA687B681343FB60044AFB6853608A
:1029980000BF1437BD4680BC704700BF001002401E
:1029A80080B485B000AF78600023FB60094B5B689A
:1029B800FB60FB6823F4E063FB60FA687B68134301
:1029C800FB60044AFB68536000BF1437BD4680BCF7
:1029D800704700BF0010024080B485B000AF786037
:1029E8000023FB60094B5B68FB60FB6823F46053C2
:1029F800FB607B68DB00FA681343FB60034AFB68F3
:102A0800536000BF1437BD4680BC704700100240B9
:102A180080B485B000AF78600023FB60094B5B6829
:102A2800FB60FB6823F44043FB60FA687B68134350
:102A3800FB60044AFB68536000BF1437BD4680BC86
:102A4800704700BF0010024080B48BB000AF7860C0
:102A580000233B6200237B620023FB610023BB61F0
:102A680000237B6100233B610023FB600023BB60E4
:102A7800614B5B6803F00C033B623B6A042B07D095
:102A8800082B09D0002B5DD17B685C4A1A605DE099
:102A98007B685B4A1A6059E0574B5B6803F4701314
:102AA8007B62554B5B6803F48033FB617B6A9B0C4C
:102AB8007B627B6A0D2B03D07B6A02337B6201E069
:102AC80006237B62FB69002B06D17B6A4D4A02FB19
:102AD80003F27B681A6039E0474BDB6A03F4803302
:102AE8007B61454BDB6A03F00F0301333B617B6974
:102AF800002B09D1424A3B69B2FBF3F37A6A02FB25
:102B080003F27B681A6021E03B4BDB6A03F0F003B9
:102B18001B090133FB60384BDB6A03F470631B0A43
:102B28000233BB60364AFB68B2FBF3F3BA6802FBB8
:102B380003F23B69B2FBF3F37A6A02FB03F27B68A8
:102B48001A6003E07B682D4A1A6000BF2A4B5B6855
:102B580003F0F0033B623B6A1B093B622A4A3B6A6B
:102B680013441B78DBB2BB617B681A68BB69DA4027
:102B78007B685A60204B5B6803F4E0633B623B6A06
:102B88001B0A3B62204A3B6A13441B78DBB2BB61D9
:102B98007B685A68BB69DA407B689A60164B5B6849
:102BA80003F460533B623B6ADB0A3B62164A3B6AAA
:102BB80013441B78DBB2BB617B685A68BB69DA4097
:102BC8007B68DA600C4B5B6803F440433B623B6A0A
:102BD8009B0B3B620D4A3B6A13441B78DBB2BB611B
:102BE8007B68DA68BB69B2FBF3F27B681A6100BFE5
:102BF8002C37BD4680BC70470010024000127A0096
:102C0800001BB70000093D006C0400207C04002074
:102C180080B483B000AF78600B46FB70FB78002B64
:102C280006D00949084B9A697B6813438B6106E013
:102C38000549054B9A697B68DB4313408B6100BFEC
:102C48000C37BD4680BC70470010024080B483B08A
:102C580000AF78600B46FB70FB78002B06D0094963
:102C6800084BDA697B681343CB6106E00549054BDD
:102C7800DA697B68DB431340CB6100BF0C37BD4684
:102C880080BC70470010024080B483B000AF786009
:102C98000B46FB70FB78002B06D00949084BDA6815
:102CA8007B681343CB6006E00549054BDA687B680F
:102CB800DB431340CB6000BF0C37BD4680BC704778
:102CC8000010024080B483B000AF78600B46FB7000
:102CD800FB78002B06D00949084B1A697B68134317
:102CE8000B6106E00549054B1A697B68DB43134015
:102CF8000B6100BF0C37BD4680BC70470010024016
:102D080080B487B000AF0346FB710023FB6000234B
:102D18007B610023FB74FB795B09DBB2FB60FB681A
:102D2800012B03D1124B1B687B6109E0FB68022B66
:102D380003D10F4B1B6A7B6102E00D4B5B6A7B6121
:102D4800FB7903F01F03FB607A69FB6822FA03F33F
:102D580003F00103002B02D00123FB7401E00023E0
:102D6800FB74FB7C18461C37BD4680BC704700BF0F
:102D780000100240002103E00B4B5B584350043124
:102D88000A480B4B42189A42F6D30A4A02E000233B
:102D980042F8043B084B9A42F9D3FEF7F9F9FEF7DB
:102DA80003F9FFF7FDFA7047B0790008000000202A
:102DB800C8080020C8080020380A0020FEE70000E4
:102DC80080B485B000AF78600023FB60344BFB60B3
:102DD8007B689B79002B4FD03149314B1A687B684F
:102DE8001B68DB4313400B602D492D4B5A687B68E9
:102DF8001B68DB4313404B607B681B791A46FB68F2
:102E08001344FB60FB68FA6811687A6812680A4321
:102E18001A602349224B9A687B681B68DB4313407E
:102E28008B601F491E4BDA687B681B68DB431340C5
:102E3800CB607B685B79102B0ED11949184B9A68C7
:102E48007B681B6813438B601549154BDA687B68F0
:102E58001B681343CB601DE0114BFB607B685B79FB
:102E68001A46FB681344FB60FB68FA6811687A68C5
:102E780012680A431A600DE07B681B791A46FB68E2
:102E88001344FB60FB68FA6811687A681268D243D9
:102E98000A401A6000BF1437BD4680BC704700BFA7
:102EA8000004014080B483B000AF7860034A7B68B7
:102EB800536100BF0C37BD4680BC70470004014019
:102EC80080B483B000AF0346FB71084997F9073017
:102ED8005B09FA7902F01F02012000FA02F241F8B8
:102EE800232000BF0C37BD4680BC704700E100E0DE
:102EF80080B483B000AF0346FB71094997F90730E6
:102F08005B09FA7902F01F02012000FA02F220336D
:102F180041F8232000BF0C37BD4680BC704700BF76
:102F280000E100E080B582B000AF172000F068F93A
:102F380003467B607B68002B02D01720FFF7D8FF81
:102F48007B6818460837BD4680BD00BF80B582B093
:102F580000AF78607B68002B02D01720FFF7B0FF26
:102F680000BF0837BD4680BD80B582B000AF78602D
:102F7800786800F005F800BF0837BD4680BD00BF7F
:102F880080B584B000AF786000F0E0F802467B6856
:102F98001344FB6000BF00F0D9F80246FB68D31A5F
:102FA800002BF8DD00BF1037BD4680BD80B584B06A
:102FB80000AF7860114B1B68002B02D10F4B104AF1
:102FC8001A600E4B1B68FB60FEF7DAF80346BB601D
:102FD8000A4B1A687B681A44BB689A4202D94FF0B8
:102FE800FF3306E0054B1A687B681344034A1360F5
:102FF800FB6818461037BD4680BD00BFF4090020A5
:10300800380A002080B485B000AF78600023FB60E8
:10301800094B1B68FB60FB6803F03803FB60FA6828
:103028007B681343FB60044AFB68136000BF1437D6
:10303800BD4680BC704700BF0020024080B483B00A
:1030480000AF7860084A084B1B6823F01003136030
:103058000549054B1A687B6813430B6000BF0C37A2
:10306800BD4680BC704700BF0020024080B400AF5E
:10307800044B1B680133034A136000BFBD4680BC84
:10308800704700BF300A002080B500AF074B1B68AF
:10309800984720210648FFF77BF80346012BF5D017
:1030A8002020FFF7FFFE00BF80BD00BFF809002009
:1030B800000C014080B483B000AF03463960FB7157
:1030C80097F90730002B0BDA0D49FB7903F00F0352
:1030D800043B3A68D2B21201D2B20B441A7609E024
:1030E800084997F907303A68D2B21201D2B20B44B4
:1030F80083F8002300BF0C37BD4680BC704700BF73
:1031080000ED00E000E100E080B582B000AF78603B
:103118007B68B3F1807F01D3012311E00A4A7B6801
:1031280023F07F43013B53600F214FF0FF30FFF73F
:10313800C1FF054B00229A60034B07221A60002347
:1031480018460837BD4680BD10E000E080B400AFE7
:10315800024B1B681846BD4680BC7047300A0020E9
:1031680080B500AF0A4B1B680A4AA2FB03239B09E0
:103178001846FFF7C9FF0346002B00D0FEE70521DC
:103188004FF0FF30FFF796FF0023184680BD00BFC1
:103198002C040020D34D621080B584B000AF2023EA
:1031A800BB812823FB7307F10C0319461348FEF76C
:1031B80033FF05210120FFF791F820237B600023CE
:1031C8003B7208237B720123BB723B1D1846FFF735
:1031D800F7FD4FF4407000F0E9FA17233B700F2316
:1031E8007B700023BB700123FB703B46184600F040
:1031F800EFFA002318461037BD4680BD000C014089
:1032080080B485B000AF78600023FB730023BB60F7
:10321800094B1A687B681340BB60BB68002B02D05F
:103228000123FB7301E00023FB73FB7B1846143773
:10323800BD4680BC704700BF0004014080B586B021
:1032480000AFFFF743FA4FF48030FFF777FAFFF744
:10325800A3FA0346FB75FB7D002B42D01020FFF735
:10326800EDFE0220FFF7CEFE0020FFF77DFB0020D9
:10327800FFF7B2FB4FF48060FFF792FB4FF400407A
:10328800FFF7C6FB3020FFF7FDFA4FF4C060FFF7E9
:1032980015FB0120FFF72EFB00BF3B20FFF730FD99
:1032A8000346002BF9D002214FF48030FFF7CAFA09
:1032B8004FF4E0114FF48030FFF796FA0120FFF742
:1032C800B1FA00BF3920FFF71BFD0346002BF9D0E8
:1032D8000220FFF71FFB00BFFFF738FB0346082B50
:1032E800FAD13B461846FFF7AFFB01214FF4805057
:1032F800FFF78EFC01214FF48040FFF7A7FC012166
:103308007D20FFF785FC002318461837BD4680BD91
:1033180080B485B000AF0346FB800023FB81094BD6
:103328001B88FB81FB8923F03803FB81FA89FB8822
:103338001343FB81034AFB89138000BF1437BD4642
:1033480080BC70470030014080B500AF2020FFF7F7
:10335800DFFF00BF80BD00BF80B500AF0820FFF7CA
:10336800D7FF00BF80BD00BF80B586B000AF26483C
:1033780000F090FA0023BB804FF48273FB80002397
:103388003B8100237B810023BB814FF40073FB81C9
:1033980010233B8200237B820723BB823B1D1946F7
:1033A800194800F0B1FAA0233B801823FB700323CF
:1033B800BB703B4619461548FEF72EFE40233B805E
:1033C8004823FB703B4619461048FEF725FE10239C
:1033D8003B801023FB700323BB703B4619460B4808
:1033E800FEF71AFE0021084800F00CFB01210648F0
:1033F80000F0CEFA10210548FEF7E4FE0023184637
:103408001837BD4680BD00BF0030014000080140AC
:1034180080B586B000AF344800F03CFA0023BB808A
:103428004FF48273FB8000233B8102237B810123BD
:10343800BB814FF40073FB8130233B8200237B82E6
:103448000723BB823B1D1946274800F05DFA4FF45D
:1034580020433B801823FB700323BB703B4619466F
:103468002248FEF7D9FD4FF480433B804823FB7088
:103478003B4619461D48FEF7CFFD4FF480533B806D
:103488001023FB700323BB703B4619461748FEF711
:10349800C3FD0021144800F0B5FA0121124800F0DC
:1034A80077FA4FF480511148FEF78CFE4FF4006311
:1034B8003B801023FB700323BB703B4619460B4827
:1034C800FEF7AAFD4FF480633B801023FB700323B3
:1034D800BB703B4619460548FEF79EFD002318467B
:1034E8001837BD4680BD00BF00380040000C0140C1
:1034F80080B582B000AF01217D20FFF789FB4FF630
:10350800FF73BB800023FB713B1D19462348FEF760
:1035180083FD3B1D19462248FEF77EFD3B1D1946DB
:103528002048FEF779FD3B1D19461F48FEF774FD3C
:103538003B1D19461D48FEF76FFD0423BB8004237D
:10354800FB713B1D19461648FEF766FD3F23BB80FD
:103558000423FB713B1D19461248FEF75DFD3F230E
:10356800BB800423FB713B1D19460E48FEF754FD32
:103578004FF47073BB801023FB710323BB713B1D99
:1035880019460848FEF748FD00210120FEF736FEDF
:10359800002318460837BD4680BD00BF000801401B
:1035A800000C0140001001400014014000180140C7
:1035B80080B582B000AF0123BB801023FB710323C9
:1035C800BB713B1D19460C48FEF726FD01210A4830
:1035D800FEF706FE0123BB800023FB710323BB71AA
:1035E8003B1D19460448FEF717FD0220FFF7C8FCEB
:1035F80000BF0837BD4680BD0008014080B584B0D3
:1036080000AF134A3B1D1068516803C3127A1A7041
:103618000023FB703B1D1A460021092000F042F8E8
:103628000A20FFF7ADFC0223FB70FB1C1A460021A1
:10363800012000F037F80123FB70FB1C1A4600211B
:10364800012000F02FF800BF1037BD4680BD00BF35
:103658003C77000880B500AFFFF786FEFFF7D8FE7D
:103668004FF400610648FEF7BBFD4FF48061044843
:10367800FEF7B6FD0A20FFF783FC00BF80BD00BF40
:10368800000C014080B500AFFFF7D8FDFFF730FF11
:10369800FFF782FDFFF764FDFFF7DCFFFFF7AEFFE2
:1036A80000BF80BD80B586B000AFF8600B467A6079
:1036B800FB7200237B6100233B61FB7A002B05D062
:1036C8004FF400612548FEF77DFD0FE0FB68012BF4
:1036D80007D17B681B7803F00303002B01D001237B
:1036E8003B614FF400611D48FEF77AFD4FF48051AD
:1036F8001A48FEF775FD00237B6116E07B697A683E
:1037080013441B789BB21946154800F061F900BFB5
:103718000121134800F096F90346002BF8D0104811
:1037280000F064F97B6901337B617A69FB689A422E
:10373800E4D34FF400610948FEF752FD4FF480517D
:103748000648FEF73FFD3B69002B02D00220FFF739
:1037580017FC00BF1837BD4680BD00BF000C0140F4
:103768000038004080B584B000AF78600223FB7356
:1037780007F10F031A4600210120FFF793FF0123E9
:10378800FB7307F10F031A4600210120FFF78AFF98
:10379800786800F0CBF903467A6801211846FFF7EC
:1037A80081FF00BF1037BD4680BD00BF80B483B025
:1037B80000AF7860054A7B6843F0BF6343F4003389
:1037C800D36000BF0C37BD4680BC704700ED00E0F9
:1037D80080B487B000AF786000237B6100233B6131
:1037E8000F23FB607B68DB78002B3AD0274BDB6824
:1037F800DB4303F4E0631B0A7B617B69C3F10403C9
:103808003B61FA687B6922FA03F3FB607B685B78AB
:103818001A463B6902FA03F37B617B689B781A4678
:10382800FB6813407A6913437B617B691B017B61E9
:10383800174A7B681B787969C9B213440A4683F82A
:103848000023134A7B681B785B09DBB218467B6848
:103858001B7803F01F03012101FA03F342F820301B
:103868000FE00B497B681B785B09DBB218467B6865
:103878001B7803F01F0301229A4000F1200341F84E
:10388800232000BF1C37BD4680BC704700ED00E018
:1038980000E100E080B582B000AF78607B68174A2D
:1038A80093420AD101214FF48050FFF7EDF900212E
:1038B8004FF48050FFF7E8F91CE07B68104A934208
:1038C8000AD101214FF48040FFF7FCF900214FF4A1
:1038D8008040FFF7F7F90DE07B680A4A934209D167
:1038E80001214FF40040FFF7EDF900214FF40040AB
:1038F800FFF7E8F900BF0837BD4680BD003001403A
:1039080000380040003C004080B485B000AF7860CB
:1039180039600023FB817B681B88FB81FB8903F4EA
:103928004153FB813B681A883B685B8813439AB212
:103938003B689B8813439AB23B68DB8813439AB26F
:103948003B681B8913439AB23B685B8913439AB25D
:103958003B689B8913439AB23B68DB8913439AB24D
:10396800FB891343FB817B68FA891A807B689B8BF0
:103978009BB223F400639AB27B689A833B681A8AE5
:103988007B681A8200BF1437BD4680BC704700BFF1
:1039980080B483B000AF78600B46FB70FB78002BD7
:1039A80008D07B681B889BB243F040039AB27B68BF
:1039B8001A8007E07B681B889BB223F040039AB209
:1039C8007B681A8000BF0C37BD4680BC704700BFBB
:1039D80080B483B000AF78600B467B807B687A88C0
:1039E8009A8100BF0C37BD4680BC704780B483B055
:1039F80000AF78607B689B899BB218460C37BD4640
:103A080080BC704780B483B000AF78600B46FB7011
:103A1800FB78002B08D07B689B889BB243F004039B
:103A28009AB27B689A8007E07B689B889BB223F0F8
:103A380004039AB27B689A8000BF0C37BD4680BCED
:103A4800704700BF80B485B000AF78600B467B80BC
:103A58000023FB737B681B899AB27B8813409BB257
:103A6800002B02D00123FB7301E00023FB73FB7BD7
:103A780018461437BD4680BC704700BF032A70B48F
:103A880026D940EA01039B0711D004780D78AC428F
:103A980022D10244431C05E013F8014B11F8015FE1
:103AA800AC4219D19342F7D1002070BC70470C4644
:103AB80003461E6825681846AE42214603F10403F2
:103AC80004F10404E1D1043A032A18462146F0D847
:103AD800002ADAD11046E8E7601B70BC704700BFC7
:103AE8000EB40146F0B54FF6FF779CB021AC54F800
:103AF800042B0D4823466FF00045029106914FF4C0
:103B0800027602A900680194ADF81670ADF8146049
:103B18000495079500F038F8029B00221A701CB033
:103B2800BDE8F04003B070472804002020F00301EE
:103B380010F00300C0F1000051F8043B00F1040C40
:103B48004FEACC0C6FF000021CBF22FA0CF21343B0
:103B58004FF0010C4CEA0C2C4CEA0C4CA3EB0C0279
:103B680022EA030212EACC1204BF51F8043B0430E3
:103B7800F4D0C2F1000102EA0102B2FA82F2C2F103
:103B88001F0200EBD20070472DE9F04FC1B00C4680
:103B9800099115460E930A9002F060FB03681846D7
:103BA8001793FFF7C3FFA38916901E0603D5236951
:103BB800002B01F05D8100231A46A8460DF1C009CB
:103BC800DFF860A4129319930B9325932493CDF8EF
:103BD8008C901492159298F800304446EBB1252B3E
:103BE80002D11AE0252B03D014F8013F002BF9D19C
:103BF800C8EB04058DB1249B259A01332A44072B71
:103C0800C9F80080C9F804502592249300F3328340
:103C180009F108090B9B2B440B932378002B00F028
:103C2800EA814FF0FF3B5D4600231A468DF86F305E
:103C380019460C930793637804F1010808F1010809
:103C4800A3F12000582800F24586DFE810F0F303BE
:103C580043064306FC03430643064306430643065E
:103C680043065900040443066600D0034306EC03E8
:103C7800BC05BC05BC05BC05BC05BC05BC05BC0534
:103C8800BC0543064306430643064306430643066C
:103C9800430643064306E205F7044306F7044306D2
:103CA8004306430643064205430643064A054306C0
:103CB8004306430643064306740543064306CD05FB
:103CC80043064306430643064306430643064306A4
:103CD800430643061D060E06F704F704F704150607
:103CE8000E0643064306A3044306A805AE046D006A
:103CF8000A044306120443063504430643067004C7
:103D08000E9C236818460C932346002803F10403ED
:103D18000E9306DA0C9B5B420C93079B43F004035B
:103D2800079398F8003089E7AB460E9A0027079862
:103D380030217823BB4514688DF8701002F1040215
:103D48004FF000058DF871308DF86F7040F002016A
:103D5800C0F23D8620F0800141F00201079154EA4B
:103D680005010E921193AD4800F0318130AE230960
:103D780043EA0573290904F00F020D461C46835CCB
:103D880006F8013D54EA0503F1D130AB9B1B0D93B6
:103D98000D9B5B45B8BF5B4608930023139317B18F
:103DA800089B01330893079B13F002030F9302D07B
:103DB800089B02330893079B13F08403109340F089
:103DC80018810C9B089A9D1A002D40F31281102D22
:103DD8002599249A924F27DD189648461024B9460B
:103DE800099E2F460A9D04E0103F102F00F108009D
:103DF80016DD01328A4B1031072A2591249280E87A
:103E08001800F1DD23AA3146284603F049F80028B6
:103E180040F0F880103F102F30A82599249AE8DC4C
:103E28003D464F468146189E01326C18072A259454
:103E38002492C9F80070C9F8045000F3D0809DF8A6
:103E48006F7009F1080977B1249B013401330DF132
:103E58006F010122072B2594249389E8060000F3BB
:103E6800208209F108090F9B6BB1249B02340133AE
:103E78001CA90222072B2594249389E8060000F345
:103E88001C8209F10809109B802B00F02C810D9BE6
:103E9800C3EB0B07002F33DD624A102F249B0F92D0
:103EA80022DD22464FF0100B0A9D099C04E0103FCA
:103EB800102F09F1080916DD01331032072B25925E
:103EC800249389E8000CF2DD23AA2146284602F053
:103ED800E7FF002840F09680103F102F0DF1C00931
:103EE800259A249BE8DC144601330F9A3C44072B9F
:103EF8002594249389E8840000F3C78109F108090F
:103F0800079BDA0500F19080249B0D9901330C443E
:103F1800072B2594C9F80060C9F80410249300F30E
:103F2800E28109F10809079B590736D50C9B089AC5
:103F38009D1A002D31DD102D249B394F22DD22469C
:103F48001026DDF828B0099C04E0103D102D09F179
:103F5800080916DD013332491032072B25922493C4
:103F680089E84200F1DD23AA2146584602F098FF6D
:103F7800002847D1103D102D0DF1C009259A249B2A
:103F8800E8DC144601332C44072B25942493C9F804
:103F98000070C9F8045000F392840B9B0C9A08999E
:103FA8008A42ACBF9B185B180B93002C40F05981D8
:103FB800002324930DF1C0090DE60027BB458DF8B9
:103FC8006F70C0F20E85079B23F080030793BBF147
:103FD800000F00F06C84002400250027C6E623AA01
:103FE80009990A9802F05CFF60B99DF86F700DF1AD
:103FF800C009259C27E7259B23B10A9823AA09997C
:1040080002F04EFF099B9B8913F0400F0B9B18BFD2
:104018004FF0FF33184641B0BDE8F08F38780008FC
:104028000478000858780008119B652B40F39F809E
:104038001498159900220023FCF7B6FD002800F01B
:104048006381249BAE49013301340122072B259457
:10405800249389E8060000F3538409F108091D9B9D
:10406800129A934203DB079BDB077FF55CAF249B27
:1040780016990133179A0C44072B2594C9F8002088
:10408800C9F80410249300F3E68609F10809129B85
:104098005D1E002D7FF747AF9A4A102D249B0F9283
:1040A80040F3178110260A9FDDF824B005E009F1D6
:1040B8000809103D102D40F30C8101331034072BF3
:1040C80025942493C9F800A0C9F80460EFDD23AA59
:1040D8005946384602F0E4FE002893D10DF1C00994
:1040E800259C249BE5E70C9B089A9F1A002F7FF7D5
:1040F800CEAE844A102F249B0F922BDD4A462146D0
:10410800B946102537460A9C099E06E0A9F1100910
:10411800B9F1100F02F1080218DD01331031072B35
:1041280025912493C2F800A05560EFDD23AA3146FB
:10413800204602F0B5FE00287FF464AFA9F110090B
:10414800B9F1100F30AA2599249BE6DC3E460C46AF
:104158004F46914601330F9A3C44072B25942493EC
:1041680089E8840000F32B8509F108098FE6129B82
:10417800249D012B04F1010405F1010540F3E884B5
:104188000123072D2594C9F800602495C9F8043047
:1041980000F3F98409F10809169A0135179B1444AC
:1041A800072D25942495C9F80030C9F8042000F398
:1041B800F88409F108090023149815990022FCF7DE
:1041C800F3FC129B002800F0EA805E1E002E40F3EC
:1041D800F5804C4B102E0F932CDDCDF83480102732
:1041E800B046DDF828B0099E06E0A8F11008B8F13D
:1041F800100F09F108091ADD01351034072D25942F
:104208002495C9F800A0C9F80470EEDD23AA314648
:10421800584602F045FE00287FF4F4AEA8F11008D5
:10422800B8F1100F0DF1C009259C249DE4DC464629
:10423800DDF8348001350F9B3444072D25942495EF
:1042480089E8480040F3B88023AA09990A9802F03F
:1042580027FE00287FF4D6AE259C249D0DF1C009C9
:10426800ACE023AA09990A9802F01AFE00283FF444
:104278009FAEC7E623AA09990A9802F011FE002802
:104288007FF4C0AE0DF1C009C4E423AA09990A98C5
:1042980002F006FE00287FF4B5AE0DF1C009259C9A
:1042A8002EE623AA09990A9802F0FAFD00287FF45D
:1042B800A9AE0DF1C009259CD5E523AA09990A984C
:1042C80002F0EEFD00287FF49DAE0DF1C009259C9B
:1042D800D9E501330F9A2C44072B2594249389E8B8
:1042E80024007FF71EAE23AA09990A9802F0D8FD88
:1042F80000287FF487AE259C0DF1C00913E600BFA6
:1043080054780008587800081D9D002D40F30E834E
:10431800139B129A9342A8BF1346002B1D460DDD2E
:10432800249B2C440133072B2594C9F80060C9F855
:104338000450249300F3158609F10809139B002DF6
:10434800A8BF5B1B002B1D4640F3A083B94A102D64
:10435800249B0F9240F3458522461027DDF828B0AC
:10436800099C05E009F10809103D102D40F3388536
:1043780001331032072B25922493C9F800A0C9F8FD
:104388000470EFDD23AA2146584602F089FD002873
:104398007FF438AE0DF1C009259A249BE4E7013B70
:1043A800013501361C44072DC9F800602495259471
:1043B800C9F804303FF748AF09F10809199A0135DF
:1043C80014441FAB072D25942495C9F80420C9F877
:1043D80000307FF7A6AD23AA09990A9802F060FD7C
:1043E80000287FF40FAE0DF1C009259C9BE598F8D5
:1043F800003008F101042A2B00F02B87A3F13000CC
:10440800092898BF002500F2AF8614F8013B05EB98
:10441800850500EB4505A3F130000928F5D945EAE3
:10442800E575A0460CE4079B43F08003079398F8D2
:10443800003003E498F8003000297FF4FFAB012234
:104448002021FFF7FBBB079B43F00103079398F874
:104458000030FFF7F3BB98F8003001222B21FFF75B
:10446800EDBB079B43F02003079398F80030FFF754
:10447800E5BB0E9AAB461668002511938DF86F5070
:10448800141D002E00F0E585BBF1000FC0F23F853A
:104498005A462946304602F091F9002800F058861D
:1044A800AB46831B0D9323EAE3730E940893CDF870
:1044B8004CB09DF86F7072E41193AB46002A40F03F
:1044C800ED86079A12F0200300F043810E9C002726
:1044D800073424F0070303F10801BB450E91D3E923
:1044E80000458DF86F70C0F2C18222F080030793F7
:1044F80054EA050300F04881002D08BF0A2CC0F0DB
:10450800488130AE204629460A220023FCF7BCFB2E
:10451800303206F8012D2046294600230A22FCF7EE
:10452800B3FB04460D4654EA0503EBD12DE4119381
:10453800AB46002A40F0CA86079B3F489D0640F1DB
:104548005D810E9C073424F0070303F108020E92E4
:10455800D3E90045079A12F0010700F0468254EAB1
:1045680005033FF42AAD9DF8442000278DF87120FB
:10457800079A3023BB458DF870308DF86F7042F084
:104588000203C0F28D8522F0800343F002030793F3
:10459800FFF7ECBB98F800306C2B00F052840798BA
:1045A80040F010000790FFF749BB1193AB46002A73
:1045B80040F09486079A12F0200300F0A0800E9C29
:1045C8000027073424F0070303F10801BB450E91C7
:1045D800D3E900458DF86F700BDB22F08003079359
:1045E80054EA050306D1BBF1000F00F0A2850024B0
:1045F8000025002730AEE20842EA4572E90804F0D7
:1046080007030D461446303354EA050206F8013D07
:10461800F1D1079AD1077FF5B8AB302B3FF4B5AB92
:104628003022731E06F8012C30AAD21A0D921E46AB
:10463800FFF7AEBB58780008387800081193AB46EE
:10464800002A40F04786079B0E9C1A0704F10704CE
:1046580040F16C8324F0070303F108020E921A68F4
:104668005B6814921593159B149D23F0004428460B
:1046780021464FF0FF32A94BFCF7C8FA002840F05A
:10468800CD82284621464FF0FF32A44BFCF7A0FA12
:10469800002840F0C3821498159900220023FCF7E3
:1046A8008DFA002840F0F6849DF86F7007999C4EAB
:1046B80021F080019B4B0791119903224FF0000BC9
:1046C80008924729D8BF1E460D92CDF84CB0FFF787
:1046D80066BB079B43F00803079398F80030FFF781
:1046E800ADBA1193AB46002A40F0EC85079B43F026
:1046F80010030793079A12F020037FF460AF07991D
:1047080011F0100200F068820E98BBF1000F02460B
:1047180004688DF86F3002F104024FF00005C0F212
:10472800C28421F08001079154EA05010E923FF4FA
:104738005AAF1F465EE71193AB46002A40F0BE858C
:10474800079B43F010030793079A12F020037FF4A6
:10475800BDAE079911F0100200F026830E98BBF148
:10476800000F024604688DF86F3002F104024FF022
:104778000005C0F28C8421F08001079154EA0501FC
:104788000E921F467FF4B8AEBBF1000F00F0908088
:10479800002440AE303406F8414DFFF7F6BA002A3F
:1047A80040F08885079B9B0640F1CA820E9A134603
:1047B80004330E930B9B1168DD171A462B46C1E98B
:1047C8000023FFF708BAA3F1300000231C4618F8AD
:1047D800013B04EB840400EB4404A3F130000928F6
:1047E800F5D90C94FFF72CBA1193AB46002A40F088
:1047F8005D85079B4C489D063FF5A3AE079BDC06ED
:1048080040F1B5820E9A00251346043314680E93BE
:10481800A0E61193AB46002A40F04485079B43F07D
:1048280010030793079B980640F1F1800E9C07340C
:1048380024F00704D4E9002304F108011D461446B6
:104848000E91002A73F10003C0F2F280BBF1000F51
:104858009DF86F70C0F20A81079B23F080030793CD
:1048680054EA05037FF448AE8EE71193AB46002A5D
:10487800D8D08DF86F10D5E7079B43F04003079316
:1048880098F80030FFF7DAB90E9911930A680023F7
:1048980001201F468DF86F309B4613930B1D08901F
:1048A8008DF898200E930D9026AEFFF77CBA5F46E0
:1048B8004FF0000BCDF834B030AEFFF769BA23AA39
:1048C80009990A9802F0ECFA00287FF49BAB259C22
:1048D800FFF763BB1193002A40F0D384119A002A92
:1048E8003FF489AB002301211F4608918DF89820D9
:1048F8008DF86F309B4613930D9126AEFFF753BA90
:1049080023AA09990A9802F0CBFA00287FF47AAB17
:104918000DF1C009259CFFF7A2BB00BFFFFFEF7F89
:10492800187800081478000824780008249BB849EF
:10493800013301340122072B2594249389E80600CA
:1049480000F3C28209F108092DB9129B1BB9079B14
:10495800DF077FF5E8AA249B16990133179A0C44C0
:10496800072B2594C9F80020C9F80410249300F3F4
:10497800FF8309F108096D42002D40F3DB82A54A47
:10498800102D0F9240F34B8322461027DDF828B0F4
:10499800099C05E009F10809103D102D40F33E83FC
:1049A80001331032072B25922493C9F800A0C9F8C7
:1049B8000470EFDD23AA2146584602F071FA002858
:1049C8007FF420AB0DF1C009259A249BE4E79248B7
:1049D8000791119354EA05030E924FF000077FF4F4
:1049E800C5A900240025FFF7C1B9BBF1000F8DF858
:1049F8006F70C0F2038222F08003079354EA050324
:104A08007FF4B4A9BBF1000F7FF4E5AA4FE7079B39
:104A1800D90640F1BA810E9A13461C680433E5178B
:104A280022460E932B46002A73F10003BFF60EAF01
:104A380064424FF02D0765EB4505BBF1000F8DF87B
:104A48006F70FFF659AD079B23F08003079353E57A
:104A58000E9ABBF1000F134614688DF86F7003F1BE
:104A680004034FF0000580F2E2810E9354EA050337
:104A78007FF442AD8DE623AA09990A9802F010FA4C
:104A880000287FF4BFAA259C0DF1C009139A1D9B2D
:104A980032441746129A934249DB079AD50746D4FF
:104AA80012990E44F51BCB1A9D42A8BF1D46002D36
:104AB8002E460DDD249A2C440132072A2594C9F884
:104AC8000070C9F80450249200F3D28209F1080951
:104AD800002EB4BF1D469D1B002D7FF724AA4D4A0A
:104AE800102D249B0F927FF7F4AB10260A9FDDF858
:104AF80024B005E009F10809103D102D7FF7E9AB56
:104B080001331034072B25942493C9F800A0C9F861
:104B18000460EFDD23AA5946384602F0C1F900289F
:104B28007FF470AA0DF1C009259C249BE4E7249A20
:104B38001698013217990444072A2594C9F80010D9
:104B4800C9F80400249200F3778209F10809A7E75D
:104B5800079BD8073FF514AB0123072D2594C9F807
:104B680000602495C9F804307FF726AC23AA099978
:104B78000A9802F095F900287FF444AA0DF1C009BB
:104B8800259C249D1AE423AA09990A9802F088F919
:104B980000287FF437AA0DF1C009259C249DFFF752
:104BA800FBBA23AA09990A9802F07AF900287FF437
:104BB80029AA0DF1C009259C249DFFF7FCBA23AA58
:104BC80009990A9802F06CF900287FF41BAA0DF1E4
:104BD800C009259CFFF75BB9079911F0400700F061
:104BE8000F810E98BBF1000F034604888DF86F20E3
:104BF80003F104034FF00005C0F2738121F0800136
:104C0800079154EA05010E933FF4EDAC1746F1E421
:104C1800547800085878000838780008149C224610
:104C28002046159C23462146FBF7F0FF002840F05C
:104C3800C182119BBBF1FF3F23F020030D9300F0CD
:104C48004982472B00F05081079B43F480731093EF
:104C5800159B1F1E149B0893B7BF3B46002303F107
:104C680000472D230F93119B662B00F01F82462BC4
:104C780000F00D810D9B21A8452B18BF5D461EA98C
:104C880008BF0BF10105049003911DA802213B46C2
:104C98000290089A019500910A9800F0B9FB119BBF
:104CA8000646672B40F03482079BDA0740F16F8293
:104CB80074190898394600220023FBF775FF00286D
:104CC80040F04D81219B9C4206D930215A1C2192EB
:104CD8001970219B9C42F9D89B1B12930D9B472B63
:104CE80000F03681119B652B40F32182119B662BC6
:104CF8001D9B139300F0FE81139A12998A42C0F209
:104D0800EC81079BD90700F1448222EAE2730D92F5
:104D1800672211920F9A002A40F0EF800893109BA7
:104D2800934607939DF86F70FFF739B824F007048E
:104D3800236814936368159304F108030E9392E4AF
:104D4800079BDF060BD4079B5E0608D50E9A1368EF
:104D580004320E92BDF82C201A80FEF73CBF0E9A42
:104D6800136804320E920B9A1A60FEF734BF0E9A3B
:104D7800079B002513F0400F134603F104030CBFF3
:104D8800146814880E93FFF7E5BB079B0E9A13F07F
:104D9800400F13463FF441AEB2F900400433E51723
:104DA8000E9322462B464CE5079911F040073FF435
:104DB8004FAE0E98BBF1000F034604888DF86F20A4
:104DC80003F104034FF00005C0F2948021F0800144
:104DD800079154EA05010E9317467FF48DABD3E48F
:104DE800144601330F9A2C44072B2594249389E801
:104DF80024003FF740AE09F1080947E60E9AE9E5B5
:104E08000E9ABBF1000F134614688DF86F7003F10A
:104E180004034FF0000564DB079A0E9322F080022A
:104E2800079254EA05027FF4E5ABFFF7DCBB079A6B
:104E38000E9322F08002079254EA05027FF45CABDD
:104E4800A2E4079B08F1010843F02003079398F8B0
:104E58000030FEF7F3BE23AA09990A9802F020F859
:104E680000287FF4CFA80DF1C009259CFFF70FB9E2
:104E780040210A9801F0F6F9099A1060106100289B
:104E880000F0F581099A40235361FEF794BE21A8EA
:104E98001EA9049003911DA803210290089A3B467D
:104EA800CDF804B000910A9800F0B2FA5D460646C3
:104EB800119B7419462B7FF4FCAE3378302B00F02D
:104EC80097811D9D2C44F4E623AA09990A9801F0BC
:104ED800E7FF00287FF496A80DF1C0091D9D259CC9
:104EE80032E50E93FFF785BBBBF1000F08BF4FF00B
:104EF800010BA9E60E931746B8E50893109B2D27DA
:104F080007938DF86F704FF0000BFEF749BF3046DE
:104F1800FEF70CFEAB460346FFF7C4BA23AA09996D
:104F28000A9801F0BDFF00287FF46CA8259C249BFB
:104F38000DF1C009129901330C44072B25942493D1
:104F4800C9F80060C9F804107EF7EBAFFFF7CBB9DA
:104F58001D9BDD1C12DB9B4510DB1393CCE623461F
:104F6800BAE623AA09990A9801F09AFF00287FF463
:104F780049A80DF1C009259CFFF7E0B9119A023A3A
:104F88001192013B9DF84420002B1D93B8BF5B4252
:104F98008DF87C20B4BF2D222B22092B8DF87D2083
:104FA80040F300810DF18B000446B84A82FB0321CF
:104FB800DA17C2EBA10101EB8102A3EB4202303206
:104FC80009290B4604F8012DEFDC21463033DAB20B
:104FD80001F8012D884240F251810DF17E012346EE
:104FE80001E013F8012B984201F8012BF9D1431C79
:104FF8001B1B0DF17E0213441FAA9B1A129A1993C8
:10500800012A13440D9340F309810D9B169A13440A
:1050180000220D93139223EAE3737BE614460133CF
:105028000F9A2C44072B2594249389E824003FF7F2
:1050380075AF09F108097DE723AA09990A9801F0D3
:105048002FFF00287EF4DEAF0DF1C0091D9B259CC3
:1050580026E55B46062B28BF06230D9323EAE37358
:10506800B346374613960E940893894EFEF797BEBB
:1050780023AA09990A9801F013FF00287EF4C2AF09
:105088001D9B129A259CD31A0DF1C00920E50E929A
:105098001F46EBE42D231F468DF86F30FFF706BB44
:1050A8000793FEF763BE0E92FFF7A3BA21A81EA9C5
:1050B800049003911DA803210290089A3B46CDF85D
:1050C80004B000910A9800F0A3F95D46064600EB8B
:1050D8000B04F2E64FF0060BB6E5169A129B134442
:1050E800139A0D93002A40F39180672223EAE37311
:1050F80011920FE6002B40F39B80BBF1000F6ED19D
:10510800079AD4076BD41A4623EAE3730D9201E693
:10511800119B472B7FF4CCAD079BDB073FF5C8AE4F
:10512800219B9B1B12930D9B472B3FF411AF1D9B9B
:1051380027E7079B5F46DB0705D540AE302306F817
:10514800413DFEF722BECDF834B030AEFEF720BEAA
:105158002BEAEB73CDF834B0089383460E94139082
:105168009DF86F70FEF71BBEA0460025FEF768BDD0
:1051780023AA09990A9801F093FE00287EF442AF09
:105188000DF1C0091D9D259C249BFFF7F4BB219BB5
:10519800A2E5169A139B134467220D93119223EAF2
:1051A800E373B7E5303330228DF87F308DF87E20F9
:1051B80020AB21E70799374E21F08001364B079144
:1051C800119903224FF0000B08924729D8BF1E46B9
:1051D8000D92CDF84CB09DF86F70FEF7E0BD139BB3
:1051E800169A9D1805EB0B030D9323EAE37391E5DB
:1051F8000898394600220023FBF7D6FC00287FF4E4
:1052080060AEC5F101051D952C4452E5139B0D9A1E
:10521800C3F101031A4413460D9266E7079B13F086
:1052280001037FF4F2AE13930D9B23EAE37371E558
:10523800BBF1000F02D1079BD80707D5169B5D1C51
:1052480005EB0B030D9323EAE37363E501230D9349
:1052580060E50E9898F8013005680430002D0E902E
:10526800A046BEF6EBAC4FF0FF35FEF7E7BC0A9A56
:105278000C2313604FF0FF30FEF7CDBE0DF17E0317
:10528800BAE68DF86F10FFF729BB00BF6766666640
:105298004C780008207800081C7800088DF86F10FA
:1052A800FFF70FB98DF86F10FFF7B8BA8DF86F10C8
:1052B800FFF79FBA8DF86F10FFF774BA8DF86F106B
:1052C800FFF73EBA8DF86F10FFF710BA8DF86F1020
:1052D800FFF732B98DF86F10FFF7B5B98DF86F1079
:1052E800FFF768B92DE9F04F03690F6983B09F4252
:1052F80000F38980013F01F1140600F1140A56F801
:1053080027305AF827200133B2FBF3F8BB0000938B
:1053180006EB030953440193B8F1000F3BD0002377
:105328001C46B446D6465CF804BBDEF800501FFAAB
:105338008BF208FB02324FEA1B4B130C08FB0B33B2
:1053480092B2A41A1FFA83FBAAB22244CBEB1544EB
:1053580004EB224492B242EA0442E1454EF8042B9F
:105368004FEA24444FEA1343DDD2009B5AF8033036
:105378008BB9019C231F9A450CD254F8043C4BB9B5
:10538800A4F1080302E01A68043B1AB99A4507F128
:10539800FF37F8D30761044601F068FC00282EDBCC
:1053A80000235546194608F1010856F8042B2B68C6
:1053B80090B2081A120C99B2C2EB1343421803EBCD
:1053C800224392B242EA0342B14545F8042B4FEA20
:1053D8002341EAD25AF827200AEB87037AB91A1F21
:1053E80092450BD253F8042C42B9083B02E01A68E4
:1053F800043B1AB99A4507F1FF37F8D327614046AD
:1054080003B0BDE8F08F002003B0BDE8F08F00BF07
:105418002DE9F04F016C99B0814692469B46259C38
:1054280049B1426C012393408B604A6001F038FA1D
:105438000023C9F84030BBF1000FD84633DB002306
:105448002360A34B1A4608EA0303934214D00022B0
:10545800002350465946FBF7A7FB054648B3249A54
:1054680001231360269B002B00F0C5809948186023
:10547800013819B0BDE8F08F42F20F73249A136017
:10548800BAF1000F00F0A2809348269B002BF0D0C1
:10549800C378002B00F0B18000F10803269A13604E
:1054A80019B0BDE8F08F01232BF000482360C346F4
:1054B800C7E716AA17AB0192009352465B464846C7
:1054C80001F088FC5FEA1854099040F08880169D26
:1054D800179C2C4404F23243202B40F38A82C3F1F8
:1054E800400304F2124008FA03F82AFA00F040EAEE
:1054F8000800FAF7E5FF0123013CA1F1F8710F93C9
:105508000022764BFAF79EFE6BA3D3E90023FBF744
:105518004DF86BA3D3E90023FAF796FE064620461A
:105528000F46FAF7DDFF68A3D3E90023FBF73EF83F
:1055380002460B4630463946FAF786FE06460F46BF
:10554800FBF77AFB00220390002330463946FBF72D
:1055580035FB002840F02982039E162E00F2228295
:105568005F49524601EBC6015B46D1E90001FBF7F2
:1055780043FB002800F04282731E039300230D931F
:105588002C1B631E049300F12B8200230693039BBC
:10559800002BC0F21C82049A0C9311461944002374
:1055A80004910B93229B092B29D8052B40F3528693
:1055B800043B22930025229B023B032B00F22F86FB
:1055C800DFE813F02703200232035304424B454A15
:1055D800C8F31300002814BF1846104655E7CBF34C
:1055E800130343F07F510F955046A4F2FF3441F462
:1055F8004011169D84E73C483BE7C31C4EE7002159
:10560800C9F844104846229101F022F94FF0FF33BF
:10561800229A07930E93012308902392C9F8400019
:105628000A93179B002BC0F2CA80039A0E2A00F334
:10563800C6802B4B03EBC20318CBCDE90434239B64
:10564800002BC0F2FC8256465F46DDE904AB3046CB
:1056580052465B463946FBF7D3F8FBF7EDFA0446AA
:10566800FAF73EFF52465B46FAF7A0FF02460B46A2
:1056780030463946FAF7E6FD079E089F04F13005E3
:10568800012E3D7002460B4607F101055ED000224F
:10569800164BFAF78BFF0022002306460F46FBF74E
:1056A80083FA002878D1CDF81890DDF81CA0DDF831
:1056B80020B0DDE9048928E061436F63A787D23F02
:1056C800B3C8608B288AC63FFB799F501344D33FE9
:1056D8000000F07F55780008747800080000F83F53
:1056E800887800086878000854780008000024408A
:1056F8000022C34BFAF75AFF0022002306460F4642
:10570800FBF752FA002840F0B38342464B46304636
:105718003946FBF775F8FBF78FFA0446FAF7E0FE0F
:1057280042464B46FAF742FF02460B463046394698
:10573800FAF788FD04F1300605F8016BCBEB050696
:10574800564502460B46D3D1DDF818901046194647
:10575800FAF77AFD06460F4602460B46DDE90401D4
:10576800FBF72CFA40B9DDE9040132463B46FBF76A
:105778001BFA88B1E3070FD515F8014C6B1E089A80
:1057880004E09A4200F02C8413F8014D392C03F1FF
:105798000105F6D001341C700999484601F080F8DB
:1057A8000022039B2A70249A01331360269B002B46
:1057B80000F0A88308981D6019B0BDE8F08F0A9A18
:1057C800002A00F01281229A012A40F35A82079B8C
:1057D8000B9A5F1EBA42C0F29883D71B079B002B17
:1057E800C0F28C84069D079B069A01211A440692F2
:1057F800049A48461A44049201F0EAF8064665B14C
:10580800049900290B4608DDA942A8BF2B46069A31
:10581800ED1AD21ACB1A069204930B9B002B40F375
:10582800FD820A9A002A00F00382002F00F000820D
:1058380031463A46484601F073F9DDF824800146BE
:1058480042460646484601F0CDF8414604464846D9
:1058580001F026F80B9BDB1B0B9340F0E88101213C
:10586800484601F0B5F80C9B8046002B00F01B82DF
:1058780001461A46484601F053F9229B8046012BFF
:1058880040F3F9820027D8F8103008EB8303186931
:1058980001F050F8C0F12000049A104410F01F00E5
:1058A80000F0F881C0F12003042B40F3CB84069B61
:1058B800C0F11C00034406931346034405440493B3
:1058C800069B002B05DD21461A46484601F078F96B
:1058D8000446049B002B05DD41461A46484601F064
:1058E8006FF980460D9B002B40F07D82079B002BB3
:1058F80040F396820A9B002B40F0F681DDF820A049
:10590800079F554604E02146484600F0D3FF044669
:1059180041462046FFF7E6FC303005F8010BCAEB9C
:105928000503BB424FF00A024FF00003EBDB089B74
:10593800079A8246012AACBF9B1801331D464FF0D7
:10594800000B21460122484601F03AF941460990E8
:1059580001F08CF9002840F30E8315F8012C6B1E1A
:10596800089904E08B4200F0798213F8012D392A56
:1059780003F10105F6D001321A704146484600F09D
:105988008FFF002E3FF408AFBBF1000F05D0B345E1
:1059980003D05946484600F083FF3146484600F098
:1059A8007FFFF9E601230D93EAE5DDF80C80404618
:1059B800FAF796FD02460B4630463946FBF7F4F8EF
:1059C80000287FF4C9AD08F1FF330393C4E5069AB4
:1059D800039BD21A5B420B93002306920C93E1E5DA
:1059E8005B42069300230493D1E50B9F069D0A9E14
:1059F80005E7C3F120080AFA08F07AE50D90BFE53B
:105A08000000244000230A93039B239A13440E9317
:105A18000133002B079340F38582079C264600211B
:105A2800172EC9F844100BD9012204235B0003F197
:105A38001400B042114602F10102F7D9C9F8441026
:105A4800484600F005FF0E2C0890C9F840003FF6C4
:105A5800E8AD002D3FF4E5AD5746D8460399CDE9AA
:105A68001078002940F39382924B01F00F020E1137
:105A780003EBC203F006D3E9004540F14E828E4B9A
:105A88005046D3E908235946FAF7BAFE82468B46B0
:105A980006F00F064FF0030886B1874FF10709D5C6
:105AA800D7E9002320462946FAF780FD04460D462B
:105AB80008F10108761007F10807EFD122462B46B6
:105AC80050465946FAF79CFE06460F460D9B43B1D1
